{
  "_format": "hh-sol-artifact-1",
  "contractName": "DeBank",
  "sourceName": "contracts/DeBank.sol",
  "abi": [
    {
      "inputs": [
        {
          "internalType": "address",
          "name": "_vndTokenAddress",
          "type": "address"
        }
      ],
      "stateMutability": "nonpayable",
      "type": "constructor"
    },
    {
      "inputs": [],
      "name": "EnforcedPause",
      "type": "error"
    },
    {
      "inputs": [],
      "name": "ExpectedPause",
      "type": "error"
    },
    {
      "inputs": [
        {
          "internalType": "address",
          "name": "owner",
          "type": "address"
        }
      ],
      "name": "OwnableInvalidOwner",
      "type": "error"
    },
    {
      "inputs": [
        {
          "internalType": "address",
          "name": "account",
          "type": "address"
        }
      ],
      "name": "OwnableUnauthorizedAccount",
      "type": "error"
    },
    {
      "inputs": [
        {
          "internalType": "uint256",
          "name": "value",
          "type": "uint256"
        },
        {
          "internalType": "uint256",
          "name": "length",
          "type": "uint256"
        }
      ],
      "name": "StringsInsufficientHexLength",
      "type": "error"
    },
    {
      "anonymous": false,
      "inputs": [
        {
          "indexed": true,
          "internalType": "address",
          "name": "account",
          "type": "address"
        }
      ],
      "name": "AccountOpened",
      "type": "event"
    },
    {
      "anonymous": false,
      "inputs": [
        {
          "indexed": false,
          "internalType": "uint256",
          "name": "newLimit",
          "type": "uint256"
        }
      ],
      "name": "DailyLimitUpdated",
      "type": "event"
    },
    {
      "anonymous": false,
      "inputs": [
        {
          "indexed": true,
          "internalType": "address",
          "name": "account",
          "type": "address"
        },
        {
          "indexed": false,
          "internalType": "uint256",
          "name": "amount",
          "type": "uint256"
        },
        {
          "indexed": false,
          "internalType": "uint256",
          "name": "balance",
          "type": "uint256"
        }
      ],
      "name": "Deposited",
      "type": "event"
    },
    {
      "anonymous": false,
      "inputs": [
        {
          "indexed": false,
          "internalType": "uint256",
          "name": "newRate",
          "type": "uint256"
        }
      ],
      "name": "FeeRateUpdated",
      "type": "event"
    },
    {
      "anonymous": false,
      "inputs": [
        {
          "indexed": true,
          "internalType": "address",
          "name": "newReceiver",
          "type": "address"
        }
      ],
      "name": "FeeReceiverUpdated",
      "type": "event"
    },
    {
      "anonymous": false,
      "inputs": [
        {
          "indexed": true,
          "internalType": "address",
          "name": "previousOwner",
          "type": "address"
        },
        {
          "indexed": true,
          "internalType": "address",
          "name": "newOwner",
          "type": "address"
        }
      ],
      "name": "OwnershipTransferred",
      "type": "event"
    },
    {
      "anonymous": false,
      "inputs": [
        {
          "indexed": false,
          "internalType": "address",
          "name": "account",
          "type": "address"
        }
      ],
      "name": "Paused",
      "type": "event"
    },
    {
      "anonymous": false,
      "inputs": [
        {
          "indexed": true,
          "internalType": "address",
          "name": "account",
          "type": "address"
        },
        {
          "indexed": false,
          "internalType": "uint256",
          "name": "amount",
          "type": "uint256"
        },
        {
          "indexed": false,
          "internalType": "uint256",
          "name": "durationMonths",
          "type": "uint256"
        }
      ],
      "name": "SavingsDeposited",
      "type": "event"
    },
    {
      "anonymous": false,
      "inputs": [
        {
          "indexed": true,
          "internalType": "address",
          "name": "account",
          "type": "address"
        },
        {
          "indexed": false,
          "internalType": "uint256",
          "name": "amount",
          "type": "uint256"
        },
        {
          "indexed": false,
          "internalType": "uint256",
          "name": "interestEarned",
          "type": "uint256"
        }
      ],
      "name": "SavingsWithdrawn",
      "type": "event"
    },
    {
      "anonymous": false,
      "inputs": [
        {
          "indexed": true,
          "internalType": "address",
          "name": "from",
          "type": "address"
        },
        {
          "indexed": true,
          "internalType": "address",
          "name": "to",
          "type": "address"
        },
        {
          "indexed": false,
          "internalType": "uint256",
          "name": "amount",
          "type": "uint256"
        },
        {
          "indexed": false,
          "internalType": "uint256",
          "name": "fee",
          "type": "uint256"
        }
      ],
      "name": "Transferred",
      "type": "event"
    },
    {
      "anonymous": false,
      "inputs": [
        {
          "indexed": false,
          "internalType": "address",
          "name": "account",
          "type": "address"
        }
      ],
      "name": "Unpaused",
      "type": "event"
    },
    {
      "anonymous": false,
      "inputs": [
        {
          "indexed": true,
          "internalType": "address",
          "name": "account",
          "type": "address"
        },
        {
          "indexed": false,
          "internalType": "uint256",
          "name": "amount",
          "type": "uint256"
        },
        {
          "indexed": false,
          "internalType": "uint256",
          "name": "balance",
          "type": "uint256"
        }
      ],
      "name": "Withdrawn",
      "type": "event"
    },
    {
      "inputs": [
        {
          "internalType": "address",
          "name": "",
          "type": "address"
        },
        {
          "internalType": "uint256",
          "name": "",
          "type": "uint256"
        }
      ],
      "name": "accountTransactions",
      "outputs": [
        {
          "internalType": "uint256",
          "name": "id",
          "type": "uint256"
        },
        {
          "internalType": "address",
          "name": "from",
          "type": "address"
        },
        {
          "internalType": "address",
          "name": "to",
          "type": "address"
        },
        {
          "internalType": "uint256",
          "name": "amount",
          "type": "uint256"
        },
        {
          "internalType": "uint256",
          "name": "timestamp",
          "type": "uint256"
        },
        {
          "internalType": "string",
          "name": "txType",
          "type": "string"
        },
        {
          "internalType": "string",
          "name": "description",
          "type": "string"
        }
      ],
      "stateMutability": "view",
      "type": "function"
    },
    {
      "inputs": [
        {
          "internalType": "address",
          "name": "",
          "type": "address"
        }
      ],
      "name": "balances",
      "outputs": [
        {
          "internalType": "uint256",
          "name": "",
          "type": "uint256"
        }
      ],
      "stateMutability": "view",
      "type": "function"
    },
    {
      "inputs": [],
      "name": "bankOwner",
      "outputs": [
        {
          "internalType": "address",
          "name": "",
          "type": "address"
        }
      ],
      "stateMutability": "view",
      "type": "function"
    },
    {
      "inputs": [],
      "name": "dailyTransferLimit",
      "outputs": [
        {
          "internalType": "uint256",
          "name": "",
          "type": "uint256"
        }
      ],
      "stateMutability": "view",
      "type": "function"
    },
    {
      "inputs": [
        {
          "internalType": "address",
          "name": "",
          "type": "address"
        },
        {
          "internalType": "uint256",
          "name": "",
          "type": "uint256"
        }
      ],
      "name": "dailyTransferredAmount",
      "outputs": [
        {
          "internalType": "uint256",
          "name": "",
          "type": "uint256"
        }
      ],
      "stateMutability": "view",
      "type": "function"
    },
    {
      "inputs": [
        {
          "internalType": "uint256",
          "name": "_amount",
          "type": "uint256"
        }
      ],
      "name": "deposit",
      "outputs": [],
      "stateMutability": "nonpayable",
      "type": "function"
    },
    {
      "inputs": [
        {
          "internalType": "uint256",
          "name": "_amount",
          "type": "uint256"
        },
        {
          "internalType": "uint256",
          "name": "_durationMonths",
          "type": "uint256"
        }
      ],
      "name": "depositSavings",
      "outputs": [],
      "stateMutability": "nonpayable",
      "type": "function"
    },
    {
      "inputs": [],
      "name": "feeReceiver",
      "outputs": [
        {
          "internalType": "address",
          "name": "",
          "type": "address"
        }
      ],
      "stateMutability": "view",
      "type": "function"
    },
    {
      "inputs": [
        {
          "internalType": "address",
          "name": "_account",
          "type": "address"
        }
      ],
      "name": "getAccountTransactionHistory",
      "outputs": [
        {
          "components": [
            {
              "internalType": "uint256",
              "name": "id",
              "type": "uint256"
            },
            {
              "internalType": "address",
              "name": "from",
              "type": "address"
            },
            {
              "internalType": "address",
              "name": "to",
              "type": "address"
            },
            {
              "internalType": "uint256",
              "name": "amount",
              "type": "uint256"
            },
            {
              "internalType": "uint256",
              "name": "timestamp",
              "type": "uint256"
            },
            {
              "internalType": "string",
              "name": "txType",
              "type": "string"
            },
            {
              "internalType": "string",
              "name": "description",
              "type": "string"
            }
          ],
          "internalType": "struct DeBank.Transaction[]",
          "name": "",
          "type": "tuple[]"
        }
      ],
      "stateMutability": "view",
      "type": "function"
    },
    {
      "inputs": [
        {
          "internalType": "address",
          "name": "_account",
          "type": "address"
        }
      ],
      "name": "getBalance",
      "outputs": [
        {
          "internalType": "uint256",
          "name": "",
          "type": "uint256"
        }
      ],
      "stateMutability": "view",
      "type": "function"
    },
    {
      "inputs": [
        {
          "internalType": "address",
          "name": "_account",
          "type": "address"
        }
      ],
      "name": "getDailyTransferredAmount",
      "outputs": [
        {
          "internalType": "uint256",
          "name": "",
          "type": "uint256"
        }
      ],
      "stateMutability": "view",
      "type": "function"
    },
    {
      "inputs": [
        {
          "internalType": "address",
          "name": "",
          "type": "address"
        }
      ],
      "name": "isAccount",
      "outputs": [
        {
          "internalType": "bool",
          "name": "",
          "type": "bool"
        }
      ],
      "stateMutability": "view",
      "type": "function"
    },
    {
      "inputs": [],
      "name": "nextTransactionId",
      "outputs": [
        {
          "internalType": "uint256",
          "name": "",
          "type": "uint256"
        }
      ],
      "stateMutability": "view",
      "type": "function"
    },
    {
      "inputs": [],
      "name": "owner",
      "outputs": [
        {
          "internalType": "address",
          "name": "",
          "type": "address"
        }
      ],
      "stateMutability": "view",
      "type": "function"
    },
    {
      "inputs": [],
      "name": "pause",
      "outputs": [],
      "stateMutability": "nonpayable",
      "type": "function"
    },
    {
      "inputs": [],
      "name": "paused",
      "outputs": [
        {
          "internalType": "bool",
          "name": "",
          "type": "bool"
        }
      ],
      "stateMutability": "view",
      "type": "function"
    },
    {
      "inputs": [
        {
          "internalType": "uint256",
          "name": "_amount",
          "type": "uint256"
        }
      ],
      "name": "recoverVNDT",
      "outputs": [],
      "stateMutability": "nonpayable",
      "type": "function"
    },
    {
      "inputs": [],
      "name": "renounceOwnership",
      "outputs": [],
      "stateMutability": "nonpayable",
      "type": "function"
    },
    {
      "inputs": [],
      "name": "savingsInterestRate",
      "outputs": [
        {
          "internalType": "uint256",
          "name": "",
          "type": "uint256"
        }
      ],
      "stateMutability": "view",
      "type": "function"
    },
    {
      "inputs": [
        {
          "internalType": "uint256",
          "name": "_newLimit",
          "type": "uint256"
        }
      ],
      "name": "setDailyTransferLimit",
      "outputs": [],
      "stateMutability": "nonpayable",
      "type": "function"
    },
    {
      "inputs": [
        {
          "internalType": "uint256",
          "name": "_newRate",
          "type": "uint256"
        }
      ],
      "name": "setFeeRate",
      "outputs": [],
      "stateMutability": "nonpayable",
      "type": "function"
    },
    {
      "inputs": [
        {
          "internalType": "address",
          "name": "_newReceiver",
          "type": "address"
        }
      ],
      "name": "setFeeReceiver",
      "outputs": [],
      "stateMutability": "nonpayable",
      "type": "function"
    },
    {
      "inputs": [
        {
          "internalType": "uint256",
          "name": "_newRate",
          "type": "uint256"
        }
      ],
      "name": "setSavingsInterestRate",
      "outputs": [],
      "stateMutability": "nonpayable",
      "type": "function"
    },
    {
      "inputs": [],
      "name": "totalDeposits",
      "outputs": [
        {
          "internalType": "uint256",
          "name": "",
          "type": "uint256"
        }
      ],
      "stateMutability": "view",
      "type": "function"
    },
    {
      "inputs": [
        {
          "internalType": "address",
          "name": "_to",
          "type": "address"
        },
        {
          "internalType": "uint256",
          "name": "_amount",
          "type": "uint256"
        }
      ],
      "name": "transfer",
      "outputs": [],
      "stateMutability": "nonpayable",
      "type": "function"
    },
    {
      "inputs": [],
      "name": "transferFeeRate",
      "outputs": [
        {
          "internalType": "uint256",
          "name": "",
          "type": "uint256"
        }
      ],
      "stateMutability": "view",
      "type": "function"
    },
    {
      "inputs": [
        {
          "internalType": "address",
          "name": "newOwner",
          "type": "address"
        }
      ],
      "name": "transferOwnership",
      "outputs": [],
      "stateMutability": "nonpayable",
      "type": "function"
    },
    {
      "inputs": [],
      "name": "unpause",
      "outputs": [],
      "stateMutability": "nonpayable",
      "type": "function"
    },
    {
      "inputs": [
        {
          "internalType": "address",
          "name": "",
          "type": "address"
        },
        {
          "internalType": "uint256",
          "name": "",
          "type": "uint256"
        }
      ],
      "name": "userSavingsAccounts",
      "outputs": [
        {
          "internalType": "uint256",
          "name": "amount",
          "type": "uint256"
        },
        {
          "internalType": "uint256",
          "name": "startTime",
          "type": "uint256"
        },
        {
          "internalType": "uint256",
          "name": "durationMonths",
          "type": "uint256"
        },
        {
          "internalType": "uint256",
          "name": "interestRate",
          "type": "uint256"
        },
        {
          "internalType": "bool",
          "name": "isActive",
          "type": "bool"
        }
      ],
      "stateMutability": "view",
      "type": "function"
    },
    {
      "inputs": [],
      "name": "vndToken",
      "outputs": [
        {
          "internalType": "contract IERC20Metadata",
          "name": "",
          "type": "address"
        }
      ],
      "stateMutability": "view",
      "type": "function"
    },
    {
      "inputs": [
        {
          "internalType": "uint256",
          "name": "_amount",
          "type": "uint256"
        }
      ],
      "name": "withdraw",
      "outputs": [],
      "stateMutability": "nonpayable",
      "type": "function"
    },
    {
      "inputs": [
        {
          "internalType": "uint256",
          "name": "_index",
          "type": "uint256"
        }
      ],
      "name": "withdrawSavings",
      "outputs": [],
      "stateMutability": "nonpayable",
      "type": "function"
    }
  ],
  "bytecode": "0x60806040523480156200001157600080fd5b506040516200615738038062006157833981810160405281019062000037919062000389565b33600073ffffffffffffffffffffffffffffffffffffffff168173ffffffffffffffffffffffffffffffffffffffff1603620000ad5760006040517f1e4fbdf7000000000000000000000000000000000000000000000000000000008152600401620000a49190620003cc565b60405180910390fd5b620000be816200025b60201b60201c565b5033600160006101000a81548173ffffffffffffffffffffffffffffffffffffffff021916908373ffffffffffffffffffffffffffffffffffffffff16021790555080600260006101000a81548173ffffffffffffffffffffffffffffffffffffffff021916908373ffffffffffffffffffffffffffffffffffffffff160217905550600260009054906101000a900473ffffffffffffffffffffffffffffffffffffffff1673ffffffffffffffffffffffffffffffffffffffff1663313ce5676040518163ffffffff1660e01b8152600401602060405180830381865afa158015620001af573d6000803e3d6000fd5b505050506040513d601f19601f82011682018060405250810190620001d5919062000427565b600a620001e39190620005e6565b633b9aca00620001f4919062000637565b600681905550600a60088190555033600960006101000a81548173ffffffffffffffffffffffffffffffffffffffff021916908373ffffffffffffffffffffffffffffffffffffffff1602179055506001600b819055506101f4600d819055505062000682565b60008060009054906101000a900473ffffffffffffffffffffffffffffffffffffffff169050816000806101000a81548173ffffffffffffffffffffffffffffffffffffffff021916908373ffffffffffffffffffffffffffffffffffffffff1602179055508173ffffffffffffffffffffffffffffffffffffffff168173ffffffffffffffffffffffffffffffffffffffff167f8be0079c531659141344cd1fd0a4f28419497f9722a3daafe3b4186f6b6457e060405160405180910390a35050565b600080fd5b600073ffffffffffffffffffffffffffffffffffffffff82169050919050565b6000620003518262000324565b9050919050565b620003638162000344565b81146200036f57600080fd5b50565b600081519050620003838162000358565b92915050565b600060208284031215620003a257620003a16200031f565b5b6000620003b28482850162000372565b91505092915050565b620003c68162000344565b82525050565b6000602082019050620003e36000830184620003bb565b92915050565b600060ff82169050919050565b6200040181620003e9565b81146200040d57600080fd5b50565b6000815190506200042181620003f6565b92915050565b60006020828403121562000440576200043f6200031f565b5b6000620004508482850162000410565b91505092915050565b7f4e487b7100000000000000000000000000000000000000000000000000000000600052601160045260246000fd5b60008160011c9050919050565b6000808291508390505b6001851115620004e757808604811115620004bf57620004be62000459565b5b6001851615620004cf5780820291505b8081029050620004df8562000488565b94506200049f565b94509492505050565b600082620005025760019050620005d5565b81620005125760009050620005d5565b81600181146200052b576002811462000536576200056c565b6001915050620005d5565b60ff8411156200054b576200054a62000459565b5b8360020a91508482111562000565576200056462000459565b5b50620005d5565b5060208310610133831016604e8410600b8410161715620005a65782820a905083811115620005a0576200059f62000459565b5b620005d5565b620005b5848484600162000495565b92509050818404811115620005cf57620005ce62000459565b5b81810290505b9392505050565b6000819050919050565b6000620005f382620005dc565b91506200060083620003e9565b92506200062f7fffffffffffffffffffffffffffffffffffffffffffffffffffffffffffffffff8484620004f0565b905092915050565b60006200064482620005dc565b91506200065183620005dc565b92508282026200066181620005dc565b915082820484148315176200067b576200067a62000459565b5b5092915050565b615ac580620006926000396000f3fe608060405234801561001057600080fd5b50600436106101f05760003560e01c80638456cb591161010f578063de986450116100a2578063efdcd97411610071578063efdcd97414610577578063f2fde38b14610593578063f714af6f146105af578063f8b2cb4f146105cd576101f0565b8063de98645014610503578063e147aaa71461051f578063e91b74d71461053d578063e943fb8414610559576101f0565b8063b3f00674116100de578063b3f006741461048f578063b6b55f25146104ad578063cdfca2d1146104c9578063d7ca38f3146104e5576101f0565b80638456cb59146104175780638da5cb5b14610421578063a9059cbb1461043f578063aa5e185f1461045b576101f0565b806349e8aa29116101875780635f7af99b116101565780635f7af99b146103a35780636de7ce14146103d3578063715018a6146103ef5780637d882097146103f9576101f0565b806349e8aa29146103095780635c975abb146103395780635eb55d16146103575780635efbcb3014610387576101f0565b8063351bf518116101c3578063351bf5181461028f5780633f4ba83a146102ad57806340cec0ba146102b757806345596e2e146102ed576101f0565b8063196a29eb146101f557806325ca4c9c1461021357806327e235e3146102435780632e1a7d4d14610273575b600080fd5b6101fd6105fd565b60405161020a9190613fb3565b60405180910390f35b61022d60048036038101906102289190614031565b610603565b60405161023a9190614079565b60405180910390f35b61025d60048036038101906102589190614031565b610623565b60405161026a9190613fb3565b60405180910390f35b61028d600480360381019061028891906140c0565b61063b565b005b610297610bcc565b6040516102a49190613fb3565b60405180910390f35b6102b5610bd2565b005b6102d160048036038101906102cc91906140ed565b610c74565b6040516102e497969594939291906141cc565b60405180910390f35b610307600480360381019061030291906140c0565b610e23565b005b610323600480360381019061031e91906140ed565b610f39565b6040516103309190613fb3565b60405180910390f35b610341610f5e565b60405161034e9190614079565b60405180910390f35b610371600480360381019061036c9190614031565b610f74565b60405161037e9190613fb3565b60405180910390f35b6103a1600480360381019061039c9190614249565b610fe1565b005b6103bd60048036038101906103b89190614031565b611561565b6040516103ca9190614456565b60405180910390f35b6103ed60048036038101906103e891906140c0565b61187b565b005b6103f7611915565b005b610401611929565b60405161040e9190613fb3565b60405180910390f35b61041f61192f565b005b6104296119d1565b6040516104369190614478565b60405180910390f35b610459600480360381019061045491906140ed565b6119fa565b005b610475600480360381019061047091906140ed565b612588565b604051610486959493929190614493565b60405180910390f35b6104976125e8565b6040516104a49190614478565b60405180910390f35b6104c760048036038101906104c291906140c0565b61260e565b005b6104e360048036038101906104de91906140c0565b612bed565b005b6104ed612d01565b6040516104fa9190613fb3565b60405180910390f35b61051d600480360381019061051891906140c0565b612d07565b005b610527613352565b6040516105349190614478565b60405180910390f35b610557600480360381019061055291906140c0565b613378565b005b6105616135ea565b60405161056e9190614545565b60405180910390f35b610591600480360381019061058c9190614031565b613610565b005b6105ad60048036038101906105a89190614031565b613798565b005b6105b761381e565b6040516105c49190613fb3565b60405180910390f35b6105e760048036038101906105e29190614031565b613824565b6040516105f49190613fb3565b60405180910390f35b600d5481565b60036020528060005260406000206000915054906101000a900460ff1681565b60046020528060005260406000206000915090505481565b33600360008273ffffffffffffffffffffffffffffffffffffffff1673ffffffffffffffffffffffffffffffffffffffff16815260200190815260200160002060009054906101000a900460ff166106c8576040517f08c379a00000000000000000000000000000000000000000000000000000000081526004016106bf906145ac565b60405180910390fd5b8180600460003373ffffffffffffffffffffffffffffffffffffffff1673ffffffffffffffffffffffffffffffffffffffff16815260200190815260200160002054101561074b576040517f08c379a000000000000000000000000000000000000000000000000000000000815260040161074290614618565b60405180910390fd5b61075361386d565b60008311610796576040517f08c379a000000000000000000000000000000000000000000000000000000000815260040161078d906146aa565b60405180910390fd5b82600460003373ffffffffffffffffffffffffffffffffffffffff1673ffffffffffffffffffffffffffffffffffffffff168152602001908152602001600020546107e191906146f9565b600460003373ffffffffffffffffffffffffffffffffffffffff1673ffffffffffffffffffffffffffffffffffffffff16815260200190815260200160002081905550600260009054906101000a900473ffffffffffffffffffffffffffffffffffffffff1673ffffffffffffffffffffffffffffffffffffffff1663a9059cbb33856040518363ffffffff1660e01b815260040161088192919061472d565b6020604051808303816000875af11580156108a0573d6000803e3d6000fd5b505050506040513d601f19601f820116820180604052508101906108c49190614782565b610903576040517f08c379a00000000000000000000000000000000000000000000000000000000081526004016108fa90614821565b60405180910390fd5b8260055461091191906146f9565b600581905550600a60003373ffffffffffffffffffffffffffffffffffffffff1673ffffffffffffffffffffffffffffffffffffffff1681526020019081526020016000206040518060e00160405280600b600081548092919061097490614841565b9190505581526020013073ffffffffffffffffffffffffffffffffffffffff1681526020013373ffffffffffffffffffffffffffffffffffffffff1681526020018581526020014281526020016040518060400160405280600881526020017f576974686472617700000000000000000000000000000000000000000000000081525081526020016040518060400160405280601c81526020017f57697468647261772066726f6d20446542616e6b206163636f756e740000000081525081525090806001815401808255809150506001900390600052602060002090600702016000909190919091506000820151816000015560208201518160010160006101000a81548173ffffffffffffffffffffffffffffffffffffffff021916908373ffffffffffffffffffffffffffffffffffffffff16021790555060408201518160020160006101000a81548173ffffffffffffffffffffffffffffffffffffffff021916908373ffffffffffffffffffffffffffffffffffffffff160217905550606082015181600301556080820151816004015560a0820151816005019081610b1f9190614aba565b5060c0820151816006019081610b359190614aba565b5050503373ffffffffffffffffffffffffffffffffffffffff167f92ccf450a286a957af52509bc1c9939d1a6a481783e142e41e2499f0bb66ebc684600460003373ffffffffffffffffffffffffffffffffffffffff1673ffffffffffffffffffffffffffffffffffffffff16815260200190815260200160002054604051610bbf929190614b8c565b60405180910390a2505050565b60085481565b600160009054906101000a900473ffffffffffffffffffffffffffffffffffffffff1673ffffffffffffffffffffffffffffffffffffffff163373ffffffffffffffffffffffffffffffffffffffff1614610c62576040517f08c379a0000000000000000000000000000000000000000000000000000000008152600401610c5990614c27565b60405180910390fd5b610c6a6138ae565b610c726138ee565b565b600a6020528160005260406000208181548110610c9057600080fd5b9060005260206000209060070201600091509150508060000154908060010160009054906101000a900473ffffffffffffffffffffffffffffffffffffffff16908060020160009054906101000a900473ffffffffffffffffffffffffffffffffffffffff1690806003015490806004015490806005018054610d12906148e7565b80601f0160208091040260200160405190810160405280929190818152602001828054610d3e906148e7565b8015610d8b5780601f10610d6057610100808354040283529160200191610d8b565b820191906000526020600020905b815481529060010190602001808311610d6e57829003601f168201915b505050505090806006018054610da0906148e7565b80601f0160208091040260200160405190810160405280929190818152602001828054610dcc906148e7565b8015610e195780601f10610dee57610100808354040283529160200191610e19565b820191906000526020600020905b815481529060010190602001808311610dfc57829003601f168201915b5050505050905087565b600160009054906101000a900473ffffffffffffffffffffffffffffffffffffffff1673ffffffffffffffffffffffffffffffffffffffff163373ffffffffffffffffffffffffffffffffffffffff1614610eb3576040517f08c379a0000000000000000000000000000000000000000000000000000000008152600401610eaa90614c27565b60405180910390fd5b612710811115610ef8576040517f08c379a0000000000000000000000000000000000000000000000000000000008152600401610eef90614cb9565b60405180910390fd5b806008819055507f208f1b468d3d61f0f085e975bd9d04367c930d599642faad06695229f3eadcd881604051610f2e9190613fb3565b60405180910390a150565b6007602052816000526040600020602052806000526040600020600091509150505481565b60008060149054906101000a900460ff16905090565b6000806201518042610f869190614d08565b9050600760008473ffffffffffffffffffffffffffffffffffffffff1673ffffffffffffffffffffffffffffffffffffffff168152602001908152602001600020600082815260200190815260200160002054915050919050565b33600360008273ffffffffffffffffffffffffffffffffffffffff1673ffffffffffffffffffffffffffffffffffffffff16815260200190815260200160002060009054906101000a900460ff1661106e576040517f08c379a0000000000000000000000000000000000000000000000000000000008152600401611065906145ac565b60405180910390fd5b8280600460003373ffffffffffffffffffffffffffffffffffffffff1673ffffffffffffffffffffffffffffffffffffffff1681526020019081526020016000205410156110f1576040517f08c379a00000000000000000000000000000000000000000000000000000000081526004016110e890614618565b60405180910390fd5b6110f961386d565b6000841161113c576040517f08c379a000000000000000000000000000000000000000000000000000000000815260040161113390614dab565b60405180910390fd5b60008311801561114d5750603c8311155b61118c576040517f08c379a000000000000000000000000000000000000000000000000000000000815260040161118390614e3d565b60405180910390fd5b83600460003373ffffffffffffffffffffffffffffffffffffffff1673ffffffffffffffffffffffffffffffffffffffff168152602001908152602001600020546111d791906146f9565b600460003373ffffffffffffffffffffffffffffffffffffffff1673ffffffffffffffffffffffffffffffffffffffff16815260200190815260200160002081905550600c60003373ffffffffffffffffffffffffffffffffffffffff1673ffffffffffffffffffffffffffffffffffffffff1681526020019081526020016000206040518060a00160405280868152602001428152602001858152602001600d5481526020016001151581525090806001815401808255809150506001900390600052602060002090600502016000909190919091506000820151816000015560208201518160010155604082015181600201556060820151816003015560808201518160040160006101000a81548160ff0219169083151502179055505050600a60003373ffffffffffffffffffffffffffffffffffffffff1673ffffffffffffffffffffffffffffffffffffffff1681526020019081526020016000206040518060e00160405280600b600081548092919061135590614841565b9190505581526020013373ffffffffffffffffffffffffffffffffffffffff1681526020013073ffffffffffffffffffffffffffffffffffffffff1681526020018681526020014281526020016040518060400160405280600e81526020017f536176696e67734465706f73697400000000000000000000000000000000000081525081526020016113e686613950565b6040516020016113f69190614ee5565b60405160208183030381529060405281525090806001815401808255809150506001900390600052602060002090600702016000909190919091506000820151816000015560208201518160010160006101000a81548173ffffffffffffffffffffffffffffffffffffffff021916908373ffffffffffffffffffffffffffffffffffffffff16021790555060408201518160020160006101000a81548173ffffffffffffffffffffffffffffffffffffffff021916908373ffffffffffffffffffffffffffffffffffffffff160217905550606082015181600301556080820151816004015560a08201518160050190816114f29190614aba565b5060c08201518160060190816115089190614aba565b5050503373ffffffffffffffffffffffffffffffffffffffff167f1a96ef469e332471886959f90a71ae924792a05ad7eea4e43a1c29becdf238ed8585604051611553929190614b8c565b60405180910390a250505050565b606081600360008273ffffffffffffffffffffffffffffffffffffffff1673ffffffffffffffffffffffffffffffffffffffff16815260200190815260200160002060009054906101000a900460ff166115f0576040517f08c379a00000000000000000000000000000000000000000000000000000000081526004016115e7906145ac565b60405180910390fd5b600a60008473ffffffffffffffffffffffffffffffffffffffff1673ffffffffffffffffffffffffffffffffffffffff168152602001908152602001600020805480602002602001604051908101604052809291908181526020016000905b8282101561186f57838290600052602060002090600702016040518060e0016040529081600082015481526020016001820160009054906101000a900473ffffffffffffffffffffffffffffffffffffffff1673ffffffffffffffffffffffffffffffffffffffff1673ffffffffffffffffffffffffffffffffffffffff1681526020016002820160009054906101000a900473ffffffffffffffffffffffffffffffffffffffff1673ffffffffffffffffffffffffffffffffffffffff1673ffffffffffffffffffffffffffffffffffffffff168152602001600382015481526020016004820154815260200160058201805461174c906148e7565b80601f0160208091040260200160405190810160405280929190818152602001828054611778906148e7565b80156117c55780601f1061179a576101008083540402835291602001916117c5565b820191906000526020600020905b8154815290600101906020018083116117a857829003601f168201915b505050505081526020016006820180546117de906148e7565b80601f016020809104026020016040519081016040528092919081815260200182805461180a906148e7565b80156118575780601f1061182c57610100808354040283529160200191611857565b820191906000526020600020905b81548152906001019060200180831161183a57829003601f168201915b5050505050815250508152602001906001019061164f565b50505050915050919050565b600160009054906101000a900473ffffffffffffffffffffffffffffffffffffffff1673ffffffffffffffffffffffffffffffffffffffff163373ffffffffffffffffffffffffffffffffffffffff161461190b576040517f08c379a000000000000000000000000000000000000000000000000000000000815260040161190290614c27565b60405180910390fd5b80600d8190555050565b61191d613a1e565b6119276000613aa5565b565b60055481565b600160009054906101000a900473ffffffffffffffffffffffffffffffffffffffff1673ffffffffffffffffffffffffffffffffffffffff163373ffffffffffffffffffffffffffffffffffffffff16146119bf576040517f08c379a00000000000000000000000000000000000000000000000000000000081526004016119b690614c27565b60405180910390fd5b6119c761386d565b6119cf613b69565b565b60008060009054906101000a900473ffffffffffffffffffffffffffffffffffffffff16905090565b33600360008273ffffffffffffffffffffffffffffffffffffffff1673ffffffffffffffffffffffffffffffffffffffff16815260200190815260200160002060009054906101000a900460ff16611a87576040517f08c379a0000000000000000000000000000000000000000000000000000000008152600401611a7e906145ac565b60405180910390fd5b82600073ffffffffffffffffffffffffffffffffffffffff168173ffffffffffffffffffffffffffffffffffffffff1603611af7576040517f08c379a0000000000000000000000000000000000000000000000000000000008152600401611aee90614f66565b60405180910390fd5b8280600460003373ffffffffffffffffffffffffffffffffffffffff1673ffffffffffffffffffffffffffffffffffffffff168152602001908152602001600020541015611b7a576040517f08c379a0000000000000000000000000000000000000000000000000000000008152600401611b7190614618565b60405180910390fd5b338460006201518042611b8d9190614d08565b905060065482600760008673ffffffffffffffffffffffffffffffffffffffff1673ffffffffffffffffffffffffffffffffffffffff168152602001908152602001600020600084815260200190815260200160002054611bee9190614f86565b1115611c2f576040517f08c379a0000000000000000000000000000000000000000000000000000000008152600401611c269061502c565b60405180910390fd5b611c3761386d565b60008711611c7a576040517f08c379a0000000000000000000000000000000000000000000000000000000008152600401611c71906150be565b60405180910390fd5b8773ffffffffffffffffffffffffffffffffffffffff163373ffffffffffffffffffffffffffffffffffffffff1603611ce8576040517f08c379a0000000000000000000000000000000000000000000000000000000008152600401611cdf90615150565b60405180910390fd5b600061271060085489611cfb9190615170565b611d059190614d08565b905060008189611d1591906146f9565b905088600460003373ffffffffffffffffffffffffffffffffffffffff1673ffffffffffffffffffffffffffffffffffffffff16815260200190815260200160002054611d6291906146f9565b600460003373ffffffffffffffffffffffffffffffffffffffff1673ffffffffffffffffffffffffffffffffffffffff16815260200190815260200160002081905550600360008b73ffffffffffffffffffffffffffffffffffffffff1673ffffffffffffffffffffffffffffffffffffffff16815260200190815260200160002060009054906101000a900460ff16611e92576001600360008c73ffffffffffffffffffffffffffffffffffffffff1673ffffffffffffffffffffffffffffffffffffffff16815260200190815260200160002060006101000a81548160ff0219169083151502179055508973ffffffffffffffffffffffffffffffffffffffff167f2077f6e031a8faa17b96131641b087822c10522fe1a94841987eccbe8f619f7f60405160405180910390a25b80600460008c73ffffffffffffffffffffffffffffffffffffffff1673ffffffffffffffffffffffffffffffffffffffff16815260200190815260200160002054611edd9190614f86565b600460008c73ffffffffffffffffffffffffffffffffffffffff1673ffffffffffffffffffffffffffffffffffffffff16815260200190815260200160002081905550600082111561202b57600260009054906101000a900473ffffffffffffffffffffffffffffffffffffffff1673ffffffffffffffffffffffffffffffffffffffff1663a9059cbb600960009054906101000a900473ffffffffffffffffffffffffffffffffffffffff16846040518363ffffffff1660e01b8152600401611fa892919061472d565b6020604051808303816000875af1158015611fc7573d6000803e3d6000fd5b505050506040513d601f19601f82011682018060405250810190611feb9190614782565b61202a576040517f08c379a000000000000000000000000000000000000000000000000000000000815260040161202190615224565b60405180910390fd5b5b6000620151804261203c9190614d08565b905089600760003373ffffffffffffffffffffffffffffffffffffffff1673ffffffffffffffffffffffffffffffffffffffff16815260200190815260200160002060008381526020019081526020016000205461209a9190614f86565b600760003373ffffffffffffffffffffffffffffffffffffffff1673ffffffffffffffffffffffffffffffffffffffff168152602001908152602001600020600083815260200190815260200160002081905550600a60003373ffffffffffffffffffffffffffffffffffffffff1673ffffffffffffffffffffffffffffffffffffffff1681526020019081526020016000206040518060e00160405280600b600081548092919061214b90614841565b9190505581526020013373ffffffffffffffffffffffffffffffffffffffff1681526020018d73ffffffffffffffffffffffffffffffffffffffff1681526020018c81526020014281526020016040518060400160405280600b81526020017f5472616e736665724f757400000000000000000000000000000000000000000081525081526020016121dc8e613bcc565b6040516020016121ec919061526a565b60405160208183030381529060405281525090806001815401808255809150506001900390600052602060002090600702016000909190919091506000820151816000015560208201518160010160006101000a81548173ffffffffffffffffffffffffffffffffffffffff021916908373ffffffffffffffffffffffffffffffffffffffff16021790555060408201518160020160006101000a81548173ffffffffffffffffffffffffffffffffffffffff021916908373ffffffffffffffffffffffffffffffffffffffff160217905550606082015181600301556080820151816004015560a08201518160050190816122e89190614aba565b5060c08201518160060190816122fe9190614aba565b505050600a60008c73ffffffffffffffffffffffffffffffffffffffff1673ffffffffffffffffffffffffffffffffffffffff1681526020019081526020016000206040518060e00160405280600b600081548092919061235e90614841565b9190505581526020013373ffffffffffffffffffffffffffffffffffffffff1681526020018d73ffffffffffffffffffffffffffffffffffffffff1681526020018481526020014281526020016040518060400160405280600a81526020017f5472616e73666572496e0000000000000000000000000000000000000000000081525081526020016123ef33613bcc565b6040516020016123ff91906152b6565b60405160208183030381529060405281525090806001815401808255809150506001900390600052602060002090600702016000909190919091506000820151816000015560208201518160010160006101000a81548173ffffffffffffffffffffffffffffffffffffffff021916908373ffffffffffffffffffffffffffffffffffffffff16021790555060408201518160020160006101000a81548173ffffffffffffffffffffffffffffffffffffffff021916908373ffffffffffffffffffffffffffffffffffffffff160217905550606082015181600301556080820151816004015560a08201518160050190816124fb9190614aba565b5060c08201518160060190816125119190614aba565b5050508a73ffffffffffffffffffffffffffffffffffffffff163373ffffffffffffffffffffffffffffffffffffffff167f18d62fb566bbc5565888ee7f280d21e62d398373f26d05401c3d6587fcc95c5c8c86604051612573929190614b8c565b60405180910390a35050505050505050505050565b600c60205281600052604060002081815481106125a457600080fd5b9060005260206000209060050201600091509150508060000154908060010154908060020154908060030154908060040160009054906101000a900460ff16905085565b600960009054906101000a900473ffffffffffffffffffffffffffffffffffffffff1681565b33600073ffffffffffffffffffffffffffffffffffffffff168173ffffffffffffffffffffffffffffffffffffffff160361267e576040517f08c379a000000000000000000000000000000000000000000000000000000000815260040161267590614f66565b60405180910390fd5b61268661386d565b600082116126c9576040517f08c379a00000000000000000000000000000000000000000000000000000000081526004016126c09061534e565b60405180910390fd5b600360003373ffffffffffffffffffffffffffffffffffffffff1673ffffffffffffffffffffffffffffffffffffffff16815260200190815260200160002060009054906101000a900460ff166127b6576001600360003373ffffffffffffffffffffffffffffffffffffffff1673ffffffffffffffffffffffffffffffffffffffff16815260200190815260200160002060006101000a81548160ff0219169083151502179055503373ffffffffffffffffffffffffffffffffffffffff167f2077f6e031a8faa17b96131641b087822c10522fe1a94841987eccbe8f619f7f60405160405180910390a25b600260009054906101000a900473ffffffffffffffffffffffffffffffffffffffff1673ffffffffffffffffffffffffffffffffffffffff166323b872dd3330856040518463ffffffff1660e01b81526004016128159392919061536e565b6020604051808303816000875af1158015612834573d6000803e3d6000fd5b505050506040513d601f19601f820116820180604052508101906128589190614782565b612897576040517f08c379a000000000000000000000000000000000000000000000000000000000815260040161288e90615417565b60405180910390fd5b81600460003373ffffffffffffffffffffffffffffffffffffffff1673ffffffffffffffffffffffffffffffffffffffff168152602001908152602001600020546128e29190614f86565b600460003373ffffffffffffffffffffffffffffffffffffffff1673ffffffffffffffffffffffffffffffffffffffff16815260200190815260200160002081905550816005546129339190614f86565b600581905550600a60003373ffffffffffffffffffffffffffffffffffffffff1673ffffffffffffffffffffffffffffffffffffffff1681526020019081526020016000206040518060e00160405280600b600081548092919061299690614841565b9190505581526020013373ffffffffffffffffffffffffffffffffffffffff1681526020013073ffffffffffffffffffffffffffffffffffffffff1681526020018481526020014281526020016040518060400160405280600781526020017f4465706f7369740000000000000000000000000000000000000000000000000081525081526020016040518060400160405280601981526020017f4465706f73697420746f20446542616e6b206163636f756e740000000000000081525081525090806001815401808255809150506001900390600052602060002090600702016000909190919091506000820151816000015560208201518160010160006101000a81548173ffffffffffffffffffffffffffffffffffffffff021916908373ffffffffffffffffffffffffffffffffffffffff16021790555060408201518160020160006101000a81548173ffffffffffffffffffffffffffffffffffffffff021916908373ffffffffffffffffffffffffffffffffffffffff160217905550606082015181600301556080820151816004015560a0820151816005019081612b419190614aba565b5060c0820151816006019081612b579190614aba565b5050503373ffffffffffffffffffffffffffffffffffffffff167f73a19dd210f1a7f902193214c0ee91dd35ee5b4d920cba8d519eca65a7b488ca83600460003373ffffffffffffffffffffffffffffffffffffffff1673ffffffffffffffffffffffffffffffffffffffff16815260200190815260200160002054604051612be1929190614b8c565b60405180910390a25050565b600160009054906101000a900473ffffffffffffffffffffffffffffffffffffffff1673ffffffffffffffffffffffffffffffffffffffff163373ffffffffffffffffffffffffffffffffffffffff1614612c7d576040517f08c379a0000000000000000000000000000000000000000000000000000000008152600401612c7490614c27565b60405180910390fd5b60008111612cc0576040517f08c379a0000000000000000000000000000000000000000000000000000000008152600401612cb7906154a9565b60405180910390fd5b806006819055507f6cd8635c4285386b9de2e59a4c1eaf32ad41f28ae64c308280217d7af51464e081604051612cf69190613fb3565b60405180910390a150565b600b5481565b33600360008273ffffffffffffffffffffffffffffffffffffffff1673ffffffffffffffffffffffffffffffffffffffff16815260200190815260200160002060009054906101000a900460ff16612d94576040517f08c379a0000000000000000000000000000000000000000000000000000000008152600401612d8b906145ac565b60405180910390fd5b612d9c61386d565b600c60003373ffffffffffffffffffffffffffffffffffffffff1673ffffffffffffffffffffffffffffffffffffffff168152602001908152602001600020805490508210612e20576040517f08c379a0000000000000000000000000000000000000000000000000000000008152600401612e179061553b565b60405180910390fd5b6000600c60003373ffffffffffffffffffffffffffffffffffffffff1673ffffffffffffffffffffffffffffffffffffffff1681526020019081526020016000208381548110612e7357612e7261555b565b5b906000526020600020906005020190508060040160009054906101000a900460ff16612ed4576040517f08c379a0000000000000000000000000000000000000000000000000000000008152600401612ecb906155fc565b60405180910390fd5b600062278d008260020154612ee99190615170565b8260010154612ef89190614f86565b905080421015612f3d576040517f08c379a0000000000000000000000000000000000000000000000000000000008152600401612f349061568e565b60405180910390fd5b6000600c836002015461271085600301548660000154612f5d9190615170565b612f679190614d08565b612f719190615170565b612f7b9190614d08565b90506000818460000154612f8f9190614f86565b905080600460003373ffffffffffffffffffffffffffffffffffffffff1673ffffffffffffffffffffffffffffffffffffffff16815260200190815260200160002054612fdc9190614f86565b600460003373ffffffffffffffffffffffffffffffffffffffff1673ffffffffffffffffffffffffffffffffffffffff1681526020019081526020016000208190555060008460040160006101000a81548160ff021916908315150217905550600a60003373ffffffffffffffffffffffffffffffffffffffff1673ffffffffffffffffffffffffffffffffffffffff1681526020019081526020016000206040518060e00160405280600b600081548092919061309990614841565b9190505581526020013073ffffffffffffffffffffffffffffffffffffffff1681526020013373ffffffffffffffffffffffffffffffffffffffff1681526020018381526020014281526020016040518060400160405280601181526020017f536176696e67735769746864726177616c00000000000000000000000000000081525081526020016131d1600260009054906101000a900473ffffffffffffffffffffffffffffffffffffffff1673ffffffffffffffffffffffffffffffffffffffff1663313ce5676040518163ffffffff1660e01b8152600401602060405180830381865afa158015613191573d6000803e3d6000fd5b505050506040513d601f19601f820116820180604052508101906131b591906156e7565b600a6131c19190615847565b866131cc9190614d08565b613950565b6040516020016131e19190615904565b60405160208183030381529060405281525090806001815401808255809150506001900390600052602060002090600702016000909190919091506000820151816000015560208201518160010160006101000a81548173ffffffffffffffffffffffffffffffffffffffff021916908373ffffffffffffffffffffffffffffffffffffffff16021790555060408201518160020160006101000a81548173ffffffffffffffffffffffffffffffffffffffff021916908373ffffffffffffffffffffffffffffffffffffffff160217905550606082015181600301556080820151816004015560a08201518160050190816132dd9190614aba565b5060c08201518160060190816132f39190614aba565b5050503373ffffffffffffffffffffffffffffffffffffffff167f93da32e64263d25ace24ccb77425144ddc5d0dd0f4dfc1d3bc6ff0114ac7049a856000015484604051613342929190614b8c565b60405180910390a2505050505050565b600160009054906101000a900473ffffffffffffffffffffffffffffffffffffffff1681565b600160009054906101000a900473ffffffffffffffffffffffffffffffffffffffff1673ffffffffffffffffffffffffffffffffffffffff163373ffffffffffffffffffffffffffffffffffffffff1614613408576040517f08c379a00000000000000000000000000000000000000000000000000000000081526004016133ff90614c27565b60405180910390fd5b80600260009054906101000a900473ffffffffffffffffffffffffffffffffffffffff1673ffffffffffffffffffffffffffffffffffffffff166370a08231306040518263ffffffff1660e01b81526004016134649190614478565b602060405180830381865afa158015613481573d6000803e3d6000fd5b505050506040513d601f19601f820116820180604052508101906134a5919061593b565b10156134e6576040517f08c379a00000000000000000000000000000000000000000000000000000000081526004016134dd906159da565b60405180910390fd5b600260009054906101000a900473ffffffffffffffffffffffffffffffffffffffff1673ffffffffffffffffffffffffffffffffffffffff1663a9059cbb600160009054906101000a900473ffffffffffffffffffffffffffffffffffffffff16836040518363ffffffff1660e01b815260040161356592919061472d565b6020604051808303816000875af1158015613584573d6000803e3d6000fd5b505050506040513d601f19601f820116820180604052508101906135a89190614782565b6135e7576040517f08c379a00000000000000000000000000000000000000000000000000000000081526004016135de90615a46565b60405180910390fd5b50565b600260009054906101000a900473ffffffffffffffffffffffffffffffffffffffff1681565b600160009054906101000a900473ffffffffffffffffffffffffffffffffffffffff1673ffffffffffffffffffffffffffffffffffffffff163373ffffffffffffffffffffffffffffffffffffffff16146136a0576040517f08c379a000000000000000000000000000000000000000000000000000000000815260040161369790614c27565b60405180910390fd5b80600073ffffffffffffffffffffffffffffffffffffffff168173ffffffffffffffffffffffffffffffffffffffff1603613710576040517f08c379a000000000000000000000000000000000000000000000000000000000815260040161370790614f66565b60405180910390fd5b81600960006101000a81548173ffffffffffffffffffffffffffffffffffffffff021916908373ffffffffffffffffffffffffffffffffffffffff1602179055508173ffffffffffffffffffffffffffffffffffffffff167f27aae5db36d94179909d019ae0b1ac7c16d96d953148f63c0f6a0a9c8ead79ee60405160405180910390a25050565b6137a0613a1e565b600073ffffffffffffffffffffffffffffffffffffffff168173ffffffffffffffffffffffffffffffffffffffff16036138125760006040517f1e4fbdf70000000000000000000000000000000000000000000000000000000081526004016138099190614478565b60405180910390fd5b61381b81613aa5565b50565b60065481565b6000600460008373ffffffffffffffffffffffffffffffffffffffff1673ffffffffffffffffffffffffffffffffffffffff168152602001908152602001600020549050919050565b613875610f5e565b156138ac576040517fd93c066500000000000000000000000000000000000000000000000000000000815260040160405180910390fd5b565b6138b6610f5e565b6138ec576040517f8dfc202b00000000000000000000000000000000000000000000000000000000815260040160405180910390fd5b565b6138f66138ae565b60008060146101000a81548160ff0219169083151502179055507f5db9ee0a495bf2e6ff9c91a7834c1ba4fdd244a5e8aa4e537bd38aeae4b073aa613939613bf9565b6040516139469190614478565b60405180910390a1565b60606000600161395f84613c01565b01905060008167ffffffffffffffff81111561397e5761397d614889565b5b6040519080825280601f01601f1916602001820160405280156139b05781602001600182028036833780820191505090505b509050600082602001820190505b600115613a13578080600190039150507f3031323334353637383961626364656600000000000000000000000000000000600a86061a8153600a8581613a0757613a06614cd9565b5b049450600085036139be575b819350505050919050565b613a26613bf9565b73ffffffffffffffffffffffffffffffffffffffff16613a446119d1565b73ffffffffffffffffffffffffffffffffffffffff1614613aa357613a67613bf9565b6040517f118cdaa7000000000000000000000000000000000000000000000000000000008152600401613a9a9190614478565b60405180910390fd5b565b60008060009054906101000a900473ffffffffffffffffffffffffffffffffffffffff169050816000806101000a81548173ffffffffffffffffffffffffffffffffffffffff021916908373ffffffffffffffffffffffffffffffffffffffff1602179055508173ffffffffffffffffffffffffffffffffffffffff168173ffffffffffffffffffffffffffffffffffffffff167f8be0079c531659141344cd1fd0a4f28419497f9722a3daafe3b4186f6b6457e060405160405180910390a35050565b613b7161386d565b6001600060146101000a81548160ff0219169083151502179055507f62e78cea01bee320cd4e420270b5ea74000d11b0c9f74754ebdbfc544b05a258613bb5613bf9565b604051613bc29190614478565b60405180910390a1565b6060613bf28273ffffffffffffffffffffffffffffffffffffffff16601460ff16613d54565b9050919050565b600033905090565b600080600090507a184f03e93ff9f4daa797ed6e38ed64bf6a1f0100000000000000008310613c5f577a184f03e93ff9f4daa797ed6e38ed64bf6a1f0100000000000000008381613c5557613c54614cd9565b5b0492506040810190505b6d04ee2d6d415b85acef81000000008310613c9c576d04ee2d6d415b85acef81000000008381613c9257613c91614cd9565b5b0492506020810190505b662386f26fc100008310613ccb57662386f26fc100008381613cc157613cc0614cd9565b5b0492506010810190505b6305f5e1008310613cf4576305f5e1008381613cea57613ce9614cd9565b5b0492506008810190505b6127108310613d19576127108381613d0f57613d0e614cd9565b5b0492506004810190505b60648310613d3c5760648381613d3257613d31614cd9565b5b0492506002810190505b600a8310613d4b576001810190505b80915050919050565b6060600083905060006002846002613d6c9190615170565b613d769190614f86565b67ffffffffffffffff811115613d8f57613d8e614889565b5b6040519080825280601f01601f191660200182016040528015613dc15781602001600182028036833780820191505090505b5090507f300000000000000000000000000000000000000000000000000000000000000081600081518110613df957613df861555b565b5b60200101907effffffffffffffffffffffffffffffffffffffffffffffffffffffffffffff1916908160001a9053507f780000000000000000000000000000000000000000000000000000000000000081600181518110613e5d57613e5c61555b565b5b60200101907effffffffffffffffffffffffffffffffffffffffffffffffffffffffffffff1916908160001a90535060006001856002613e9d9190615170565b613ea79190614f86565b90505b6001811115613f47577f3031323334353637383961626364656600000000000000000000000000000000600f841660108110613ee957613ee861555b565b5b1a60f81b828281518110613f0057613eff61555b565b5b60200101907effffffffffffffffffffffffffffffffffffffffffffffffffffffffffffff1916908160001a905350600483901c925080613f4090615a66565b9050613eaa565b5060008214613f8f5784846040517fe22e27eb000000000000000000000000000000000000000000000000000000008152600401613f86929190614b8c565b60405180910390fd5b809250505092915050565b6000819050919050565b613fad81613f9a565b82525050565b6000602082019050613fc86000830184613fa4565b92915050565b600080fd5b600073ffffffffffffffffffffffffffffffffffffffff82169050919050565b6000613ffe82613fd3565b9050919050565b61400e81613ff3565b811461401957600080fd5b50565b60008135905061402b81614005565b92915050565b60006020828403121561404757614046613fce565b5b60006140558482850161401c565b91505092915050565b60008115159050919050565b6140738161405e565b82525050565b600060208201905061408e600083018461406a565b92915050565b61409d81613f9a565b81146140a857600080fd5b50565b6000813590506140ba81614094565b92915050565b6000602082840312156140d6576140d5613fce565b5b60006140e4848285016140ab565b91505092915050565b6000806040838503121561410457614103613fce565b5b60006141128582860161401c565b9250506020614123858286016140ab565b9150509250929050565b61413681613ff3565b82525050565b600081519050919050565b600082825260208201905092915050565b60005b8381101561417657808201518184015260208101905061415b565b60008484015250505050565b6000601f19601f8301169050919050565b600061419e8261413c565b6141a88185614147565b93506141b8818560208601614158565b6141c181614182565b840191505092915050565b600060e0820190506141e1600083018a613fa4565b6141ee602083018961412d565b6141fb604083018861412d565b6142086060830187613fa4565b6142156080830186613fa4565b81810360a08301526142278185614193565b905081810360c083015261423b8184614193565b905098975050505050505050565b600080604083850312156142605761425f613fce565b5b600061426e858286016140ab565b925050602061427f858286016140ab565b9150509250929050565b600081519050919050565b600082825260208201905092915050565b6000819050602082019050919050565b6142be81613f9a565b82525050565b6142cd81613ff3565b82525050565b600082825260208201905092915050565b60006142ef8261413c565b6142f981856142d3565b9350614309818560208601614158565b61431281614182565b840191505092915050565b600060e08301600083015161433560008601826142b5565b50602083015161434860208601826142c4565b50604083015161435b60408601826142c4565b50606083015161436e60608601826142b5565b50608083015161438160808601826142b5565b5060a083015184820360a086015261439982826142e4565b91505060c083015184820360c08601526143b382826142e4565b9150508091505092915050565b60006143cc838361431d565b905092915050565b6000602082019050919050565b60006143ec82614289565b6143f68185614294565b935083602082028501614408856142a5565b8060005b85811015614444578484038952815161442585826143c0565b9450614430836143d4565b925060208a0199505060018101905061440c565b50829750879550505050505092915050565b6000602082019050818103600083015261447081846143e1565b905092915050565b600060208201905061448d600083018461412d565b92915050565b600060a0820190506144a86000830188613fa4565b6144b56020830187613fa4565b6144c26040830186613fa4565b6144cf6060830185613fa4565b6144dc608083018461406a565b9695505050505050565b6000819050919050565b600061450b61450661450184613fd3565b6144e6565b613fd3565b9050919050565b600061451d826144f0565b9050919050565b600061452f82614512565b9050919050565b61453f81614524565b82525050565b600060208201905061455a6000830184614536565b92915050565b7f446542616e6b3a204163636f756e7420646f6573206e6f742065786973740000600082015250565b6000614596601e83614147565b91506145a182614560565b602082019050919050565b600060208201905081810360008301526145c581614589565b9050919050565b7f446542616e6b3a20496e73756666696369656e742062616c616e636500000000600082015250565b6000614602601c83614147565b915061460d826145cc565b602082019050919050565b60006020820190508181036000830152614631816145f5565b9050919050565b7f446542616e6b3a20576974686472617720616d6f756e74206d7573742062652060008201527f67726561746572207468616e207a65726f000000000000000000000000000000602082015250565b6000614694603183614147565b915061469f82614638565b604082019050919050565b600060208201905081810360008301526146c381614687565b9050919050565b7f4e487b7100000000000000000000000000000000000000000000000000000000600052601160045260246000fd5b600061470482613f9a565b915061470f83613f9a565b9250828203905081811115614727576147266146ca565b5b92915050565b6000604082019050614742600083018561412d565b61474f6020830184613fa4565b9392505050565b61475f8161405e565b811461476a57600080fd5b50565b60008151905061477c81614756565b92915050565b60006020828403121561479857614797613fce565b5b60006147a68482850161476d565b91505092915050565b7f446542616e6b3a20564e4454207472616e73666572206661696c65642064757260008201527f696e67207769746864726177616c000000000000000000000000000000000000602082015250565b600061480b602e83614147565b9150614816826147af565b604082019050919050565b6000602082019050818103600083015261483a816147fe565b9050919050565b600061484c82613f9a565b91507fffffffffffffffffffffffffffffffffffffffffffffffffffffffffffffffff820361487e5761487d6146ca565b5b600182019050919050565b7f4e487b7100000000000000000000000000000000000000000000000000000000600052604160045260246000fd5b7f4e487b7100000000000000000000000000000000000000000000000000000000600052602260045260246000fd5b600060028204905060018216806148ff57607f821691505b602082108103614912576149116148b8565b5b50919050565b60008190508160005260206000209050919050565b60006020601f8301049050919050565b600082821b905092915050565b60006008830261497a7fffffffffffffffffffffffffffffffffffffffffffffffffffffffffffffffff8261493d565b614984868361493d565b95508019841693508086168417925050509392505050565b60006149b76149b26149ad84613f9a565b6144e6565b613f9a565b9050919050565b6000819050919050565b6149d18361499c565b6149e56149dd826149be565b84845461494a565b825550505050565b600090565b6149fa6149ed565b614a058184846149c8565b505050565b5b81811015614a2957614a1e6000826149f2565b600181019050614a0b565b5050565b601f821115614a6e57614a3f81614918565b614a488461492d565b81016020851015614a57578190505b614a6b614a638561492d565b830182614a0a565b50505b505050565b600082821c905092915050565b6000614a9160001984600802614a73565b1980831691505092915050565b6000614aaa8383614a80565b9150826002028217905092915050565b614ac38261413c565b67ffffffffffffffff811115614adc57614adb614889565b5b614ae682546148e7565b614af1828285614a2d565b600060209050601f831160018114614b245760008415614b12578287015190505b614b1c8582614a9e565b865550614b84565b601f198416614b3286614918565b60005b82811015614b5a57848901518255600182019150602085019450602081019050614b35565b86831015614b775784890151614b73601f891682614a80565b8355505b6001600288020188555050505b505050505050565b6000604082019050614ba16000830185613fa4565b614bae6020830184613fa4565b9392505050565b7f446542616e6b3a204f6e6c792062616e6b206f776e65722063616e2063616c6c60008201527f20746869732066756e6374696f6e000000000000000000000000000000000000602082015250565b6000614c11602e83614147565b9150614c1c82614bb5565b604082019050919050565b60006020820190508181036000830152614c4081614c04565b9050919050565b7f446542616e6b3a2046656520726174652063616e6e6f7420657863656564203160008201527f3030250000000000000000000000000000000000000000000000000000000000602082015250565b6000614ca3602383614147565b9150614cae82614c47565b604082019050919050565b60006020820190508181036000830152614cd281614c96565b9050919050565b7f4e487b7100000000000000000000000000000000000000000000000000000000600052601260045260246000fd5b6000614d1382613f9a565b9150614d1e83613f9a565b925082614d2e57614d2d614cd9565b5b828204905092915050565b7f446542616e6b3a20536176696e6773206465706f73697420616d6f756e74206d60008201527f7573742062652067726561746572207468616e207a65726f0000000000000000602082015250565b6000614d95603883614147565b9150614da082614d39565b604082019050919050565b60006020820190508181036000830152614dc481614d88565b9050919050565b7f446542616e6b3a20536176696e6773206475726174696f6e206d75737420626560008201527f206265747765656e203120616e64203630206d6f6e7468730000000000000000602082015250565b6000614e27603883614147565b9150614e3282614dcb565b604082019050919050565b60006020820190508181036000830152614e5681614e1a565b9050919050565b7f4465706f73697420746f20736176696e677320666f7220000000000000000000815250565b600081905092915050565b6000614e998261413c565b614ea38185614e83565b9350614eb3818560208601614158565b80840191505092915050565b7f206d6f6e74687300000000000000000000000000000000000000000000000000815250565b6000614ef082614e5d565b601782019150614f008284614e8e565b9150614f0b82614ebf565b60078201915081905092915050565b7f446542616e6b3a205a65726f2061646472657373206e6f7420616c6c6f776564600082015250565b6000614f50602083614147565b9150614f5b82614f1a565b602082019050919050565b60006020820190508181036000830152614f7f81614f43565b9050919050565b6000614f9182613f9a565b9150614f9c83613f9a565b9250828201905080821115614fb457614fb36146ca565b5b92915050565b7f446542616e6b3a204461696c79207472616e73666572206c696d69742065786360008201527f6565646564000000000000000000000000000000000000000000000000000000602082015250565b6000615016602583614147565b915061502182614fba565b604082019050919050565b6000602082019050818103600083015261504581615009565b9050919050565b7f446542616e6b3a205472616e7366657220616d6f756e74206d7573742062652060008201527f67726561746572207468616e207a65726f000000000000000000000000000000602082015250565b60006150a8603183614147565b91506150b38261504c565b604082019050919050565b600060208201905081810360008301526150d78161509b565b9050919050565b7f446542616e6b3a2043616e6e6f74207472616e7366657220746f20796f75727360008201527f656c660000000000000000000000000000000000000000000000000000000000602082015250565b600061513a602383614147565b9150615145826150de565b604082019050919050565b600060208201905081810360008301526151698161512d565b9050919050565b600061517b82613f9a565b915061518683613f9a565b925082820261519481613f9a565b915082820484148315176151ab576151aa6146ca565b5b5092915050565b7f446542616e6b3a204661696c656420746f207472616e7366657220666565207460008201527f6f20726563656976657200000000000000000000000000000000000000000000602082015250565b600061520e602a83614147565b9150615219826151b2565b604082019050919050565b6000602082019050818103600083015261523d81615201565b9050919050565b7f5472616e7366657220746f200000000000000000000000000000000000000000815250565b600061527582615244565b600c820191506152858284614e8e565b915081905092915050565b7f52656365697665642066726f6d20000000000000000000000000000000000000815250565b60006152c182615290565b600e820191506152d18284614e8e565b915081905092915050565b7f446542616e6b3a204465706f73697420616d6f756e74206d757374206265206760008201527f726561746572207468616e207a65726f00000000000000000000000000000000602082015250565b6000615338603083614147565b9150615343826152dc565b604082019050919050565b600060208201905081810360008301526153678161532b565b9050919050565b6000606082019050615383600083018661412d565b615390602083018561412d565b61539d6040830184613fa4565b949350505050565b7f446542616e6b3a20564e4454207472616e7366657246726f6d206661696c656460008201527f2e2044696420796f7520617070726f766520656e6f7567683f00000000000000602082015250565b6000615401603983614147565b915061540c826153a5565b604082019050919050565b60006020820190508181036000830152615430816153f4565b9050919050565b7f446542616e6b3a204461696c79206c696d6974206d757374206265206772656160008201527f746572207468616e207a65726f00000000000000000000000000000000000000602082015250565b6000615493602d83614147565b915061549e82615437565b604082019050919050565b600060208201905081810360008301526154c281615486565b9050919050565b7f446542616e6b3a20496e76616c696420736176696e6773206163636f756e742060008201527f696e646578000000000000000000000000000000000000000000000000000000602082015250565b6000615525602583614147565b9150615530826154c9565b604082019050919050565b6000602082019050818103600083015261555481615518565b9050919050565b7f4e487b7100000000000000000000000000000000000000000000000000000000600052603260045260246000fd5b7f446542616e6b3a20536176696e6773206163636f756e74206973206e6f74206160008201527f6374697665000000000000000000000000000000000000000000000000000000602082015250565b60006155e6602583614147565b91506155f18261558a565b604082019050919050565b60006020820190508181036000830152615615816155d9565b9050919050565b7f446542616e6b3a20536176696e677320706572696f6420686173206e6f74206560008201527f6e64656420796574000000000000000000000000000000000000000000000000602082015250565b6000615678602883614147565b91506156838261561c565b604082019050919050565b600060208201905081810360008301526156a78161566b565b9050919050565b600060ff82169050919050565b6156c4816156ae565b81146156cf57600080fd5b50565b6000815190506156e1816156bb565b92915050565b6000602082840312156156fd576156fc613fce565b5b600061570b848285016156d2565b91505092915050565b60008160011c9050919050565b6000808291508390505b600185111561576b57808604811115615747576157466146ca565b5b60018516156157565780820291505b808102905061576485615714565b945061572b565b94509492505050565b6000826157845760019050615840565b816157925760009050615840565b81600181146157a857600281146157b2576157e1565b6001915050615840565b60ff8411156157c4576157c36146ca565b5b8360020a9150848211156157db576157da6146ca565b5b50615840565b5060208310610133831016604e8410600b84101617156158165782820a905083811115615811576158106146ca565b5b615840565b6158238484846001615721565b9250905081840481111561583a576158396146ca565b5b81810290505b9392505050565b600061585282613f9a565b915061585d836156ae565b925061588a7fffffffffffffffffffffffffffffffffffffffffffffffffffffffffffffffff8484615774565b905092915050565b7f5769746864726177616c2066726f6d20736176696e67732c20696e746572657360008201527f74206561726e65643a2000000000000000000000000000000000000000000000602082015250565b60006158ee602a83614e83565b91506158f982615892565b602a82019050919050565b600061590f826158e1565b915061591b8284614e8e565b915081905092915050565b60008151905061593581614094565b92915050565b60006020828403121561595157615950613fce565b5b600061595f84828501615926565b91505092915050565b7f446542616e6b3a204e6f7420656e6f75676820564e445420696e20636f6e747260008201527f61637420746f207265636f766572000000000000000000000000000000000000602082015250565b60006159c4602e83614147565b91506159cf82615968565b604082019050919050565b600060208201905081810360008301526159f3816159b7565b9050919050565b7f446542616e6b3a204661696c656420746f207265636f76657220564e44540000600082015250565b6000615a30601e83614147565b9150615a3b826159fa565b602082019050919050565b60006020820190508181036000830152615a5f81615a23565b9050919050565b6000615a7182613f9a565b915060008203615a8457615a836146ca565b5b60018203905091905056fea2646970667358221220b719326ec899f19b66c9ea72e29da59ac436c06392891ac66ec0677c9e779c1564736f6c63430008160033",
  "linkReferences": {},
  "deployedLinkReferences": {}
}